:020000040800F2
:100000004852002099680008C51F0008C71F000853
:10001000CB1F0008CF1F0008D31F000800000000FE
:10002000000000000000000000000000D71F0008D2
:10003000D91F000800000000DB1F0008651F000832
:10004000B3680008B3680008B3680008B368000824
:10005000B3680008B3680008D52B0008B36800082F
:10006000B3680008B3680008B3680008B368000804
:10007000B3680008B3680008B3680008B3680008F4
:10008000B3680008B3680008B3680008B3680008E4
:10009000B3680008B3680008B3680008B3680008D4
:1000A000B3680008B3680008B3680008B3680008C4
:1000B000B3680008B3680008B3680008B3680008B4
:1000C000B3680008B3680008B3680008B3680008A4
:1000D000B3680008B3680008B36800081525000875
:1000E000B3680008B3680008B3680008D16A000864
:1000F000B3680008B3680008B3680008B368000874
:10010000B3680008B3680008B3680008B368000863
:10011000B3680008B3680008B3680008B368000853
:10012000B3680008B3680008B3680008B368000843
:10013000B3680008B3680008B3680008B368000833
:10014000B3680008B3680008B3680008DD1F000842
:10015000B3680008B3680008B3680008B368000813
:10016000B3680008B3680008B3680008B368000803
:10017000B3680008B3680008B3680008B3680008F3
:10018000B3680008B368000800F002F800F06DF8EA
:100190000AA090E8000C82448344AAF10107DA45E2
:1001A00001D100F062F8AFF2090EBAE80F0013F0C7
:1001B000010F18BFFB1A43F001031847EC3101008F
:1001C0000C3201000A444FF0000C10F8013B13F010
:1001D000070408BF10F8014B1D1108BF10F8015BA0
:1001E000641E05D010F8016B641E01F8016BF9D193
:1001F00013F0080F1EBF10F8014BAD1C0C1B09D1EA
:100200006D1E58BF01F801CBFAD505E014F8016B5B
:1002100001F8016B6D1EF9D59142D6D370470000ED
:100220000023002400250026103A28BF78C1FBD8FF
:10023000520728BF30C148BF0B60704778290FF0C4
:10024000A18173290FF08D84002070471FB512F033
:1002500044FC0FF0D3FE04000020002111F0AAFDA1
:10026000401C60601FBD10B510BD0FF08FFE114621
:10027000FFF7ECFF05F070F80FF0B6FE03B4FFF7E0
:10028000F2FF03BC0FF0FEFE1CB556A103C9CDE979
:1002900000014FF0FF3055490860042054490880A0
:1002A000702000F041F93F21002000F0D2F8322008
:1002B00001F0F4FF1921112000F0CBF800210120FA
:1002C00000F0C7F80121022000F0C3F8032108461E
:1002D00000F0BFF80021042000F0BBF84548807909
:1002E00000F07F01052000F0B4F82621062000F080
:1002F000B0F805226946002000F0D8F9002407E094
:100300001DF804001130C0B20DF80400601CC4B226
:10031000052CF5DB0521684600F0B9F91CBD01206C
:1003200032490860704731480078704700202F49F3
:100330000860704710B52D480068012800D110BD35
:1003400004202B490880012000F00DFA00F0BAF8D3
:1003500000F0ACF8702000F0E7F804202449891E72
:10036000088001202149086000BFE8E770B5044615
:10037000002121611E480A38006800F0010008B120
:10038000002070BD04F1140000F0FEF80546202D99
:1003900007DDD4F81401401CC4F814014FF0FF30FD
:1003A000EFE725612846ECE710B504460420104924
:1003B0000880002000F0D7F900F078F8217C04F1E3
:1003C000140000F028F904200949891E088014202F
:1003D00001F04FFF042006490880FFF7A7FF2069BE
:1003E00010BD0000009845711000000000000020C2
:1003F0001A0C0240D004002070B504460220E349E4
:100400000880204605F04AFBFF2005F047FB054623
:100410000220DE49891E0880284670BD2DE9F04182
:1004200004460E4617460220D8490880204605F0AB
:1004300035FB002505E0FF2005F030FB7855681CF2
:10044000C5B2B542F7DB0220D049891E0880BDE85D
:10045000F08170B504460D460220CC49088044F076
:10046000200005F01BFB284605F018FB0220C749B9
:10047000891E088070BD2DE9F04105460E461746DD
:100480000220C249088045F0200005F007FB002447
:1004900004E0305D05F002FB601CC4B2BC42F8DB36
:1004A0000220BA49891E0880BDE8F08110B50220FB
:1004B000B6490880E12005F0F1FA0220B349891E0F
:1004C000088010BD10B50220B0490880E22005F078
:1004D000E5FA0220AD49891E088010BD10B5022042
:1004E000AA490880E32005F0D9FA0220A749891E0D
:1004F000088010BD10B50220A4490880FF2005F037
:10050000CDFA0220A149891E088010BD10B5022035
:100510009E490880072005F0C1FA044602209B4945
:10052000891E0880204610BD70B50446002504F0E1
:100530007004FFF7EBFF054602209449088027204E
:1005400005F0ACFA44EA050005F0A8FA02208F494C
:10055000891E0880FFF7DAFF70BD10B5FFF7D6FFE0
:1005600000F0700010BD10B502208849088060209E
:1005700005F094FAFF2005F091FA04460220834921
:10058000891E0880204610BD70B50646FFF7EBFFB8
:100590000446202C03DDFFF795FF212070BD0CB928
:1005A0000020FBE7022079490880612005F076FAF7
:1005B000002505E0FF2005F071FA7055681CC5B2F2
:1005C000A542F7DB02207149891E0880FFF77AFFF8
:1005D0002046E3E72DE9F04105460E46202E01DDD9
:1005E000202000E030460746FFF760FF0220674901
:1005F0000880A02005F052FA002404E0285D05F0F0
:100600004DFA601CC4B2BC42F8DB02205F49891E6F
:100610000880BDE8F08170B505460C46202C00DC52
:1006200004B970BD022059490880B02005F036FA9F
:1006300003E015F8010B05F031FA201EA4F10101C9
:10064000CCB2F6D102205149891E088000BFE8E7EC
:100650002DE9F04105460E46202E01DD202000E068
:1006600030460746022049490880A82005F016FABE
:10067000002404E0285D05F011FA601CC4B2BC42FD
:10068000F8DB02204149891E0880BDE8F08170B581
:1006900004460D46052D01DD052000E028460646EE
:1006A000324621461020FFF7E6FE70BD2DE9F041ED
:1006B00004460E461546052D01DD052000E02846BE
:1006C0000746052C01DD052000E02046804608F1A4
:1006D0000A01C8B23A463146FFF7CDFEBDE8F081C7
:1006E00070B505460620FFF787FE044624F028046F
:1006F00015B944F0200408E0012D02D124F02804AB
:1007000003E0022D01D144F0080421460620FFF742
:10071000A0FE70BD70B505460620FFF76DFE20F007
:10072000070435B1012D06D0022D07D0032D0BD1C2
:1007300007E000BF09E044F0020406E044F00404CE
:1007400003E044F0060400E000BF00BF214606209D
:10075000FFF77FFE70BD10B5044604F07F01052051
:10076000FFF777FE10BD70B504460020FFF744FE8A
:10077000054614B925F0010503E0012C01D145F02F
:10078000010529460020FFF764FE70BD1A0C0240E7
:1007900070B50446FF20207001206070FE4800788C
:1007A00000F00F00A07005F036F9054605F01CF9C1
:1007B000064671B6F84880F82D5180F82C6190F803
:1007C0002D01FF2803D1FE20F34981F82D01F248C5
:1007D00090F82D01E070F04890F82C01FF2803D12B
:1007E000FE20ED4981F82C01EB4890F82C01207196
:1007F000E94890F82D0100EE100AB8EE400ADFED4E
:10080000E70A20EE200AE44880ED4D0A90F82C011A
:1008100000EE100AB8EE400ADFEDE10A20EE200AF1
:10082000DD4880ED4C0A61B605F0F3F9C007000E13
:1008300060710120DB490870002070BD70B504466E
:10084000002504F0E9FFD8490860D848007802285C
:1008500005D10120D64908600020D4490870D3484A
:100860000078012804D1D34908600020CF490870DE
:10087000CD48006828BBCE48006801280ED1CE497B
:1008800008600020CA490860CC490860CC4800686C
:10089000401CCB4908600120C2490870C548006867
:1008A00001280ED1C74908600020C2490860C34929
:1008B0000860C3480068401CC14908600120B9496C
:1008C0000870BE480068052823DBBB480068012883
:1008D00002D10020B8490860BA480068012802D156
:1008E0000020B8490860B8480068AF4909688842E4
:1008F0000BD00120B1490860B1480068401CB049E4
:1009000008600120A74908700BE00020A549087085
:1009100007E0AA480068401CA84908600120A149D6
:100920000870A74800687F2802D10020A449086009
:10093000FF202070022060709748007800F00F00C0
:10094000A0709948007880019B49097800EB41101C
:100950009C49097800EB0110E070994800782071FB
:10096000964800786071F020A0718B49486C00288F
:1009700001DB014600E041420A2291FBF2F5FF2033
:1009800095FBF0F100FB1150E071FF2095FBF0F0BA
:1009900020728149D1F88400002801DB014600E083
:1009A00041420A2291FBF2F5FF2095FBF0F100FB9A
:1009B00011506072FF2095FBF0F0A0727649D1F8DB
:1009C000C400002801DB014600E041420A2291FBFD
:1009D000F2F5FF2095FBF0F100FB1150E072FF20D3
:1009E00095FBF0F020736C49D1F80401002801DB7D
:1009F000014600E041420A2291FBF2F5FF2095FBFF
:100A0000F0F100FB11506073FF2095FBF0F0A07334
:100A1000654800686C490860002070BD08B5024652
:100A2000507800909DF8000000F0F00000909DF8D4
:100A30000000001100909DF8000010B1072804D1BB
:100A400001E0002008BD0720FCE70020FAE72DE9BF
:100A5000F05F04460D460027002604B11DB94FF093
:100A6000FF30BDE8F09F4C48006808280CDD68782E
:100A700000F00F0048490978093901228A401040E6
:100A800068B94FF0FF30ECE7A87843490978491E70
:100A900001228A40104010B94FF0FF30E1E74FF4D7
:100AA000FA7001F01BFC494A03C24FF000083A48B3
:100AB0000068092812DA00260AE0A9780120B0406F
:100AC000014019B108F1010000F0FF08701CC6B226
:100AD00031480068401EB042EFDC22E000260AE008
:100AE000A9780120B040014019B108F1010000F0DF
:100AF000FF08701CC6B2082EF2DB00260CE06878F6
:100B000000F00F010120B040014019B108F10100CF
:100B100000F0FF08701CC6B21F4800680938B042D8
:100B2000EDDC032000EB8800C6B21B4800682060A3
:100B3000AF5DC7F30110606007F0800010B160681E
:100B4000404200E06068606008F112002F5CA85D20
:100B5000C0F3801030B17F2F02DB7F20E06007E020
:100B6000E76005E07F2F02DB7F20A06000E0A76048
:100B7000701C2F5C07F07F00206108F10F0015F852
:100B8000009009F0C0004FF6FF7101EA40092069AA
:100B900048442061701C1BE0D00400206666CA3DFA
:100BA000EB6A243F0400002014000020B80000205D
:100BB000180000201C000020200000202C00002035
:100BC00028000020240000201000002068000020E1
:100BD0002F5C07F0800010B12069404200E02069DE
:100BE0002061B01C2F5C07F07F00606108F10F00EE
:100BF00015F800A00AF030004FF6FF7101EAC00AB4
:100C0000606950446061B01C2F5C07F0800010B137
:100C10006069404200E060696061F01C2F5C07F091
:100C20007F00A06108F10F0015F800B00BF00C0078
:100C30004FF6FF7101EA401BA0695844A061F01C07
:100C40002F5C07F0800010B1A069404200E0A0696D
:100C5000A061002005E72DE9FF5F04460D4600274F
:100C60000026B34604B125B94FF0FF3004B0BDE80B
:100C7000F09FFE48006808280CDD687800F00F003F
:100C8000FA490978093901228A40104068B94FF0C1
:100C9000FF30EBE7A878F5490978491E01228A4020
:100CA000104010B94FF0FF30E0E74FF4FA7001F058
:100CB00015FBEF4A03C2ED4800682060EF78C7F3E8
:100CC0000110606007F0800010B16068404200E0F1
:100CD00060686060C7F3801040B1287A7F2802DD29
:100CE0007F20E0600AE0287AE06007E0287A7F2829
:100CF00002DD7F20A06001E0287AA0602F7907F054
:100D00007F00206195F8078008F0C0004FF6FF7162
:100D100001EA40082069404420612F7907F08000F3
:100D200010B12069404200E0206920616F7907F02E
:100D30007F00606195F8079009F030004FF6FF7171
:100D400001EAC0096069484460616F7907F080007A
:100D500010B16069404200E060696061AF7907F0FE
:100D60007F00A06195F807A00AF00C004FF6FF7114
:100D700001EA401AA0695044A061AF7907F08000F1
:100D800010B1A069404200E0A069A061002606E021
:100D900006F10900285C03A98855701CC6B2042E10
:100DA000F6DBB4480399016000680290002606E073
:100DB00006F10D00285C03A98855701CC6B2042EEC
:100DC000F6DBAD480399016000680190002606E05B
:100DD00006F11100285C03A98855701CC6B2042EC8
:100DE000F6DBA64803990160006800906F7D4FEA2A
:100DF000670BABF101019D4A083202EB81109DEDBA
:100E0000001ADDED010A9DED020A00F04EFB002004
:100E10002CE72DE9FC5F04460D469346002600278B
:100E200004B11DB94FF0FF30BDE8FC9F8F4800684A
:100E300008280CDD687800F00F008C490978093922
:100E400001228A40104068B94FF0FF30ECE7A878E3
:100E500086490978491E01228A40104010B94FF096
:100E6000FF30E1E74FF4FA7001F038FA804A03C22C
:100E70007E4800682060EE78C6F30110606006F0DE
:100E8000800010B16068404200E060686060C6F3B6
:100E9000801040B1287A7F2802DD7F20E0600AE0E0
:100EA000287AE06007E0287A7F2802DD7F20A060B2
:100EB00001E0287AA0602E7906F07F00206195F885
:100EC000078008F0C0004FF6FF7101EA4008206972
:100ED000404420612E7906F0800010B12069404224
:100EE00000E0206920616E7906F07F00606195F86E
:100EF000079009F030004FF6FF7101EAC009606900
:100F0000484460616E7906F0800010B1606940422B
:100F100000E060696061AE7906F07F00A06195F83D
:100F200007A00AF00C004FF6FF7101EA401AA06911
:100F30005044A061AE7906F0800010B1A069404233
:100F400000E0A069A0616E7A06F07F004C4908605D
:100F5000AE7A06F07F004B490860002706E007F1F3
:100F60000B00285C01A9C855781CC7B2042FF6DB1A
:100F7000019800909DED000A434880ED000A002092
:100F800052E730B503460C4603B114B94FF0FF30B9
:100F900030BD002106E0585C655CA84201D000200D
:100FA000F6E7491C9142F6DB0120F1E7F0B5054672
:100FB00000242F4600260DE0082239463348FFF76B
:100FC000E0FFC4B20CB9083703E0012C01D1204680
:100FD000F0BD761C202EEFDB2046F9E770B5044605
:100FE0000D4604B115B94FF0FF3070BD687D00F0BB
:100FF000800068B100202649086026490880687D85
:1010000000F07F00401CA4F80001012084F80201D8
:1010100094F8020120B31F480088401C00B21D490B
:10102000088000260BE006F11600295C18480268CB
:101030000068401C164B1860A154701CC6B2022EEA
:10104000F1DBB4F800011349B1F90010884207D16F
:10105000012084F80301002084F802010D49088072
:1010600094F8030101282DD1204615E0D00400207A
:1010700068000020300000203400002038000020EC
:10108000BC000020C0000020C40000200601002099
:10109000080000203C000020FFF788FF012809D14C
:1010A00042F2107001F01AF90B4A03C201200B49F9
:1010B000087002E00020094908704FF48271204650
:1010C0000EF06FFC06480068FF2802D30020044998
:1010D0000860002089E70000700000200C0000205C
:1010E0000800002001460022002000BF04E08B5CC5
:1010F0000344D8B2531CDAB2202AF8D391F8203036
:101100000344D8B2704710B50446222120460EF0A1
:1011100048FC002020706070A070E0702071607149
:10112000A071E07120726072A072E07203202073DF
:10113000122060737F20A0730020E0735A2084F88F
:1011400020002046FFF7CEFF84F8210010BD10B527
:101150000446222120460EF024FC002020706070FE
:10116000A070E07020716071A071E07120726072F7
:10117000A072E07203202073122060737F20A0739E
:101180000120E0735A2084F820002046FFF7AAFFD0
:1011900084F8210010BD70B50446222120460EF0CF
:1011A00000FC22220021204603F035FD2046FFF7F7
:1011B00099FF054694F820005A2803D194F821009D
:1011C000A84207D02046FFF79EFF2222002120469A
:1011D00003F0B0FC002070BD00B589B02421684642
:1011E0000EF001FC6846FFF7B2FF2222002168469C
:1011F00003F0A0FC002009B000BD0000014601EE94
:10120000901AB8EEE12ADFEDB42AC2EE221ADFED21
:10121000B32A80EE222ADFEDB22A42EE221AB0EE85
:10122000611AB048006846F2A812B0FBF2F001EE75
:10123000900AF8EE611A61EE811A81EEA02AFDEEA5
:10124000C21A11EE900A70479FEDA70A80ED080AB6
:101250009FEDA50A80ED090A9FEDA30A80ED0A0A19
:101260000021C162704700B50246F0EE401AC2ED9F
:10127000001AC2ED010A82ED021A31EEA00A30EE28
:10128000010A82ED030AB0EE002AB0EE610A02EE16
:10129000010A82ED040A82ED051A0020D06291480D
:1012A000006846F2A811B0FBF1F090619FED8F0A43
:1012B00082ED070A1046FFF7C7FF00BDC162704705
:1012C0008161704780ED070A70472DE9F0412DEDEF
:1012D000028B04460E46B0EE408A0027002594EDAE
:1012E000090A84ED0A0A94ED080A84ED090AE06A05
:1012F000801B00EE100AB8EEC00A84ED080A94EDD7
:10130000030AD4ED080A20EE200AD4ED040A94ED75
:10131000091A00EEC10AD4ED050A94ED0A1A00EE8E
:10132000810ABDEEC00A10EE108A206B4044206393
:10133000206BA169884202DDA069206307E0206B71
:10134000A1694942884202DAA069404220633046DE
:1013500004F0F9FA0746002F00DA7F42D4ED070ABD
:10136000B0EE600AF0EE480A3846FFF747FF054640
:10137000206BA84201DD256305E0206B69428842AD
:1013800001DA68422063206BBDEC028BBDE8F0817E
:1013900080ED000AC0ED010A80ED021A70EE201AFD
:1013A00071EE811AC0ED031AB0EE002AF0EE401A79
:1013B00042EE011AC0ED041A80ED051A96218161F2
:1013C000DFED491AC0ED071ADFED471AC0ED081A24
:1013D000DFED451AC0ED091ADFED431AC0ED0A1A18
:1013E000DFED411AC0ED0B1ADFED3F1AC0ED0C1A0C
:1013F00070470146D1ED080AC1ED090AD1ED070A8F
:10140000C1ED080AD1ED0A0A91ED0B1A70EEC10A7E
:10141000C1ED070AD1ED030A91ED071A60EE810ACA
:1014200091ED041AD1ED081A41EE610A91ED051A09
:10143000D1ED091A41EE210AB0EE600AD1ED0C0A95
:1014400070EE800AC1ED0C0A91ED0C1AD1ED060A7E
:10145000F8EEE00AB4EEE01AF1EE10FA06DDD1ED96
:10146000060AF8EEE00AC1ED0C0A14E091ED0C1A40
:101470008869404200EE900AF8EEE00AB4EEE01A05
:10148000F1EE10FA07D28869404200EE900AF8EEB9
:10149000E00AC1ED0C0AD1ED0C0AFDEEE00A10EEF7
:1014A000900A70470146086B704780ED000AC0ED56
:1014B000010A80ED021A70EE201A71EE811AC0ED59
:1014C000031AB0EE002AF0EE401A42EE011AC0ED07
:1014D000041A80ED051A70470000BB430000CC41A0
:1014E0009A99993F940000200000000000002F43CB
:1014F00010B52DED068B90B0FD4B0FCB8DE80F0096
:1015000007A8FFF748FE9DF82800FA4908609DF8F3
:101510002900F94908609DF82B00F84908709DF8EA
:101520002A007F2804DC9DF82A00F549086002E0C3
:101530007F20F349086006AA04A905A804F0C7FAA9
:1015400042F2A001EF480EF04EFA9DF81000ED496E
:1015500008609DF8140088719DF8180000F00700DD
:1015600008719DF8180000F0070006909DF818001B
:10157000022802D1012048710DE09DF8180038B111
:101580009DF81800052803D09DF81800062802D100
:101590000020DC49487100240DE0DA49083101EBF4
:1015A00084109FEDD91ADFEDD90A9FEDD90AFFF714
:1015B0005AFE601CC4B2042CEFDB9FEDD31ADFEDA2
:1015C000D50A9FEDD50AD548FFF7E2FE0020CD49A8
:1015D000A1F808019FEDD20A084680ED430A0024D5
:1015E0003EE0684600EB840090ED000ADFEDCD0A96
:1015F00080EE201A9FEDCC0A21EE008A18EE100A28
:1016000011F0FAF941EC1A0BB0EE4A0AF0EE6A0A50
:101610000FF0D6FEB0EE409AF0EE609A51EC190B46
:1016200010F0EAFB0146C14840F8241018EE100AF9
:1016300011F0E2F941EC1A0BB0EE4A0AF0EE6A0A38
:101640000FF032F8B0EE409AF0EE609A51EC190BC0
:1016500010F0D2FBB549103141F82400601CC4B22F
:10166000022CBEDB02243FE0684600EB840090EDD4
:10167000000ADFEDAC0A80EE201A9FEDAB0A21EEE6
:10168000000AB0EE408A18EE100A11F0B5F941ECEC
:101690001A0BB0EE4A0AF0EE6A0A0FF091FEB0EEB5
:1016A000409AF0EE609A51EC190B10F0A5FB9F499F
:1016B00041F8240018EE100A11F09EF941EC1A0BC3
:1016C000B0EE4A0AF0EE6A0A0EF0EEFFB0EE409A73
:1016D000F0EE609A51EC190B10F08EFB934910312B
:1016E00041F82400601CC4B2042CBDDB40F203119D
:1016F0008F48A0F8981000F0C0FF04F018F90020FF
:1017000010B0BDEC068B10BD70B504F06DF9044649
:1017100071B600EE104AB8EE400ADFED860A20EE00
:10172000200A784880ED4C0A80F82C4161B604F01C
:1017300072FAC5B28DB180480078052805DA7E4876
:101740000078401C7C49087011E005207A49087037
:1017500002207A490880284670BD0020764908702A
:101760007748007818B902207449891C0880002045
:10177000F2E710B573480078401C724908700846BB
:101780000078022804DB04F0F3FC00206D490870A7
:101790006D48007820B16D480078401C6B49087096
:1017A00010BD4FF00108B8F1000F19D000255548C1
:1017B0000079042802DC53480079451C0DE0022022
:1017C0005E490880C82000F03DFD02205B49891C6D
:1017D0000880C82000F036FD6D1E002DEFD100BF3F
:1017E0004FF47A7000F07AFD594A03C24FF47A70D0
:1017F00000F074FD574A03C24FF4FA7000F06EFD1A
:10180000554A03C2012000F069FD544A03C242F266
:10181000107000F063FD524A03C20F2000F05EFD1D
:10182000504A03C204F004FD9BE3494903C900F098
:101830005DFD78B34FF47A7000F050FD444A03C266
:10184000FFF762FF02281CD147480068401C464948
:1018500008600846006841F2883188421ADB00209F
:1018600000F04DFF00221146104600F0BBFF0021A2
:10187000084601F005F90021084601F020F900BFF3
:10188000FEE739480068002804DD37480068401E3C
:10189000354908602F4903C900F028FD28B14FF4ED
:1018A0007A7000F01BFD2B4A03C216480079072806
:1018B0001DD2DFE800F0149A04D0FDFCFB002B4899
:1018C0000068401C294908604FF48060284908805E
:1018D0001F2364220021084603F06BFD00BF23484C
:1018E0000068012846D100202049086046E026E330
:1018F000E02B010840000020440000200F010020E0
:1019000048000020D0040020000000008FC2F53BFA
:101910000AD7233B1F856B3DCDCC4C3E980400205D
:10192000809A904700003443DB0F494008060020AE
:10193000D0240020EB6A243F550000201808024004
:1019400054000020560000204E0000204F000020D0
:101950005800002060000020680000208000002067
:101960007000002078000020500000208800002037
:10197000180C02404FF48060FE49088001F0C5FA5F
:10198000FD4903C900F0B2FC00B30120FB49087017
:10199000002000F0B4FE00221146104600F022FFA5
:1019A0000021084601F06CF80021084601F087F894
:1019B000FEF7C0FC4FF4FA7000F090FCEE4A03C250
:1019C00042F2107000F08AFCED4A03C2EB48007846
:1019D00050B1EC480078032806DBFEF7ABFC002092
:1019E000E8490870E5490870AAE24FF48060E149CF
:1019F000891E08801F2300226421104603F0D9FCB1
:101A0000E149E24808F083FCE148C07C012805D1A7
:101A10000020DF49C874084601F0C0FADD4903C957
:101A200000F064FCB0B1DC48007801280DD1DB493E
:101A3000DB4804F0E4FCD94890ED050AB1EE400A19
:101A4000D84880ED0B0AFFF7D4FC0F2000F046FCCD
:101A5000D04A03C274E24FF48060C649891E0880F0
:101A60001F2364221146104603F0A3FCCE480068F1
:101A7000401CCD4908604FF48070CC4908834FF476
:101A8000FA6000F0DFFB4FF48070C849488300F033
:101A900099FD012000F033FE4FF4FA6000F0D2FB14
:101AA000002000F02CFE0021142002E004E2C0E13E
:101AB00037E000F0E5FF4FF4FA6000F0C3FB1421BB
:101AC000002000F0FCFF4FF4FA6000F0BBFBB648CA
:101AD000006801280ED164220021084600F0EDFEC6
:101AE0004FF4FA6000F0AEFB00221146104600F001
:101AF000E4FE15E0AC480068022811D16FF06302E3
:101B00000021084600F0D9FE4FF4FA6000F09AFB7D
:101B100000221146104600F0D0FE0020A2490860C5
:101B20000EE24FF480609349891E08801F23002233
:101B30006421084603F03DFC9D48007801287DD1D2
:101B4000002400269B480078092878D2DFE800F0BE
:101B500077052C5455849DB6FE00002405E0954978
:101B6000601C085C94490855641C0A2CF7DB9248F9
:101B700002F080F80646012E04D19049904A12687E
:101B8000885404E000218D488D4A126881548C48A5
:101B90000068401C8A49086008460068B0F5006F7C
:101BA00001D1002008603EE1002405E08149601C6D
:101BB000085C84490855641C062CF7DB814802F058
:101BC000FFF80646012E05D101217C487C4A1268A7
:101BD000815404E000207949794A12688854784891
:101BE0000068401C7649086008460068B0F5006F40
:101BF00001D10020086016E115E17348B0F89800A3
:101C0000000A6E496E4A126888546D480068401C8C
:101C10006B4908606C4890F898006849684A1268F7
:101C2000885467480068401C654908606748007828
:101C30006249634A12688854614801E0F8E0F1E0C3
:101C40000068401C5E49086008460068B0F5006FF7
:101C500001D100200860E6E000240BE05C48005D54
:101C60005649574A1268885455480068401C5449E0
:101C70000860641C0C2CF1DB51480068B0F5006F63
:101C800002D100204E490860CDE04A4840784628FD
:101C90000BD103F087FA01204849494A1268885459
:101CA00047480068401C4649086045480068B0F550
:101CB000006F02D100204249086000BF00200021CF
:101CC000444A92ED4C0ADFED440A20EE200ABDEEB4
:101CD000C00A10EE102A10B23E4A92ED4D0ADFED16
:101CE0003E0A20EE200ABDEEC00A10EE102A11B204
:101CF000324B334F3F68D855314A1268521C304B33
:101D00001A60C0F307222D4B2D4F3F68DA552C4A3D
:101D10001268521C2A4B1A60284B294F3F68D9552C
:101D2000274A1268521C264B1A60C1F30722234B24
:101D3000234F3F68DA55224A1268521C204B1A6022
:101D40001A461268B2F5006F03D100E002E00022EB
:101D50001A6068E0002717484078532845D1154895
:101D600087780021384600F08BFE01201349144A81
:101D7000126833E01A0C0240680000204E00002078
:101D8000700000204F00002094340020042A00201E
:101D9000BE37002078000020DA0000203029002023
:101DA00024290020980400208C000020000002401C
:101DB0006001002084290020EB280020E643002059
:101DC000F402002000010020D0240020F8000020B0
:101DD00004290020D00400200000C84288546C4828
:101DE0000068401C6A49086013E06A48407843284C
:101DF0000FD1684887783946002000F060FE012046
:101E00006549634A1268885461480068401C60490B
:101E100008605F480068B0F5006F02D100205C499F
:101E2000086000E000BF00BF00205C49087000BFF0
:101E300086E05B480068012803D10020584908600B
:101E400003E04FF480605749088001F05EF856497E
:101E500003C900F04BFA00B3012054490870002078
:101E600000F04DFC00221146104600F0BBFC0021A2
:101E7000084600F005FE0021084600F020FEFEF7AF
:101E800059FA4FF4FA7000F029FA474A03C242F2B5
:101E9000107000F023FA464A03C24448007850B15B
:101EA00044480078032806DBFEF744FA0020414945
:101EB00008703E49087043E039480068012803D1A2
:101EC00000203749086003E04FF4806035490880FE
:101ED00001F01BF8344903C900F008FA00B30120EF
:101EE00032490870002000F00AFC0022114610461A
:101EF00000F078FC0021084600F0C2FD00210846F1
:101F000000F0DDFDFEF716FA4FF4FA7000F0E6F986
:101F1000254A03C242F2107000F0E0F9244A03C2DD
:101F20002248007850B123480078032806DBFEF7EA
:101F300001FA00201F4908701C49087000E000BF2A
:101F400000BF1D48007903280BD01C4903C900F0CD
:101F5000CDF930B100F01AFB012000F0BFF9174AAB
:101F600003C262E410B516480068401C14490860BA
:101F70000846006840F2DC51884204DB01F005FDB0
:101F800000200F49086000F053F9FFF7F2FB10BD85
:101F9000F402002084290020E64300206001002094
:101FA000880000201A0C0240680000204E0000202B
:101FB000700000204F000020D0040020800000208E
:101FC00090000020704700BFFEE700BFFEE700BFA3
:101FD000FEE700BFFEE770477047704710B5054841
:101FE000007818B904480BF0ACFD02E003480DF08E
:101FF000F2F910BD0E010020042A0020D437002081
:102000000CB50020019000907648006840F48030C4
:102010007449086000BF7348006800F40030009005
:102020000198401C0190009818B90198B0F5C06F54
:10203000F1D16C48006800F4003010B1012000902C
:1020400001E0002000900098012846D1654840300A
:10205000006840F080506349403108606248006881
:1020600040F48040604908605E48083000685D497F
:10207000083108600846006840F4004008600846DF
:10208000006840F4A05008605848091F0860081F05
:10209000006840F08070091F086000BF5148006868
:1020A00000F000700028F9D040F205605049086047
:1020B0004C480830006820F003004A4908310860A5
:1020C0000846006840F00200086000BF454808303C
:1020D000006800F00C000828F8D10CBD10B5454888
:1020E000006840F47000434908603E48006840F0D2
:1020F00001003C49086000203A490831086039482D
:1021000000683D490840374908603C48091D08609F
:10211000081F006820F48020091F08600020314952
:102120000C310860FFF76CFF4FF0006031498039D7
:10213000086010BD70B50020002202230024022197
:10214000284D08352D6805F00C0020B1042806D074
:10215000082834D107E02A4D2A4E356033E02A4D55
:10216000284E35602FE01F4D2D1D2D68C5F380547E
:102170001C4D2D1D2D6805F03F0154B1224DB5FBBE
:10218000F1F5184E361D3668C6F3881605FB06F2C3
:1021900009E01B4DB5FBF1F5124E361D3668C6F34E
:1021A000881605FB06F20F4D2D1D2D68C5F3014560
:1021B0006D1C6B00B2FBF3F5124E356003E0104D61
:1021C000104E356000BF00BF064D08352D68C5F3C1
:1021D00003150E4E705D0B4D2D68C540094E3560E0
:1021E00070BD0000003802400070004019544007E4
:1021F000003C024088ED00E0FFFFF6FE10300024B6
:102200000024F4009400002040787D019800002014
:1022100008203E49088000208880888108854FF684
:10222000FF70C862012088820020486208827047DF
:102230003748036840685A1C40F1000034490A607E
:1022400048607047F0B571B6314D2F686D683B1826
:1022500045F1000461B609E071B62D4D29686A6840
:1022600061B6CD1A72EB040500D300E0F4E700BFBD
:10227000F0BD2A2141431439244AD1620021516220
:1022800011821146098841F00101118000BF1F49E8
:10229000098801F001010029F9D1704700B5034612
:1022A00004E06420FFF7E5FF581EC3B2002BF8DC02
:1022B00000BD10B503469C0002E0FA20FFF7D9FFED
:1022C000201EA4F101018CB2F7D110BD71B61048E7
:1022D0000268436861B610461946704710B5044657
:1022E000FFF7F4FF001941F1000110BDF0B50446FD
:1022F0000D46FFF7EBFF06460F46311B77EB050057
:1023000001D30120F0BD0020FCE7000000100040D8
:10231000A80000201FB5044600940020ADF804007A
:10232000ADF80600ADF80800ADF80C000C20ADF8D3
:102330000A0069468E4807F0C9FB012240F2255188
:102340008B4807F001FD0121894807F047FC1FBDBC
:1023500010B5044612E000BF4021854807F019FD82
:102360000028F9D02178824807F063FC00BF4021A3
:102370007F4807F00EFD0028F9D0641C2078002863
:10238000E9D110BD70B504460D4612E000BF4021F2
:10239000774807F0FEFC0028F9D02178744807F050
:1023A00048FC00BF4021724807F0F3FC0028F9D038
:1023B000641C281EA5F10101CDB2E7D170BDF0B5B6
:1023C00087B006461C2168460DF00DFB52E071B641
:1023D00068480078072849DB66480078192845DAFC
:1023E0006548007863490978441A002C01DA04F53D
:1023F0008074002700250FE06048025D3846791C94
:102400008FB20DF80020601CC11700EB116109129A
:10241000A0EB0124681CC5B2564800788542EBDB6E
:102420009DF800004F2812D19DF801004B280ED1D5
:102430001922694630460DF03DFA00204D490870DA
:1024400001204F49087061B6002007B0F0BD9DF82B
:102450000000FF2803D161B64FF0FF30F5E7454893
:102460000078401E4349087061B603E061B64FF042
:10247000FF30EAE7ABE7F0B587B0064649E071B652
:102480003C480078192840DB3B48007839490978F6
:10249000441A002C01DA04F58074002700250FE0AF
:1024A0003648025D3846791C8FB20DF80020601C5A
:1024B000C11700EB11610912A0EB0124681CC5B221
:1024C0002C4800788542EBDB9DF80000FF2815D1F1
:1024D0001922694630460DF0EDF926480078193882
:1024E0002449087001202749087027480078401CBB
:1024F0002549087061B6002007B0F0BD1D4800787E
:10250000401E1C49087061B603E061B64FF0FF3011
:10251000F2E7B4E710B540F22551154807F04FFC3B
:10252000F0B114480078FF2803DD0020114908703D
:1025300017E00F4807F081FB10490F4A12788854C2
:102540000D490978481CC11700EB11610912A0EB75
:102550000121094A117007480078401C054908709C
:1025600000BF40F22551024807F020FC10BD0000DA
:1025700000480040B0000020B2000020702500207C
:10258000B3000020B4000020B6000020002115E0B8
:10259000FE4800EBC1004068002809DDFB4800EB65
:1025A000C1004068401EF94A02EBC102506004E0DD
:1025B0000020F64A02EBC1025060491C0229E7DB09
:1025C00000207047002105E00020F04A02EBC10224
:1025D0005060491C0229F7DB0020704710B502F05B
:1025E00020FF02F029FF002406E00020E74901EB6C
:1025F000C4014860601CC4B2022CF6DB002010BD90
:1026000070B504460D46002D01DC002070BDDF488A
:1026100000EBC400406810B14FF0FF30F6E7002037
:10262000DB49C1F81C010846D0F81C0118BB15B3E2
:10263000D64840F834504FF4FA60D44901EBC40155
:10264000486014B1012C0ED106E0284602F0FFFECE
:102650000220D04908700DE0284602F07AFF0120E0
:10266000CC49087006E002F0E7FE02F0DAFE4FF017
:10267000FF30CBE700BF0020C8E710B5FFF7AEFF83
:10268000002010BD10B50024C348007800B92AE02E
:10269000BF48D0F8100100280BDDBD48D0F810115C
:1026A0000020FFF7ADFF0020B949C1F81001012457
:1026B00003E00020B649C1F81001B548D0F8140174
:1026C00000280BDD2CB9B248D0F814110120FFF717
:1026D00097FF0020AE49C1F8140103E00020AC4987
:1026E000C1F8140100BF0020AB4908700620012189
:1026F0008140AA4A430942F8231000BF10BD2DE9CA
:10270000F0412DED048B05460026002D02DA6C42C7
:10271000012601E02C46002624B900209C49A1F89E
:10272000080154E0012C18D19D48006846F2A81118
:10273000B0FBF1F738460FF019FE41EC190B9FED95
:10274000990B53EC102B0FF061FE41EC180B0FF0BE
:10275000C9FD8F49A1F8080139E0022C18D1904831
:10276000006846F2A811B0FBF1F738460FF0FEFD05
:1027700041EC190B9FED8D0B53EC102B0FF046FE27
:1027800041EC180B0FF0AEFD8149A1F808011EE0E5
:10279000032C18D18248006846F2A811B0FBF1F76B
:1027A00038460FF0E3FD41EC190B9FED820B53EC23
:1027B000102B0FF02BFE41EC180B0FF093FD74491A
:1027C000A1F8080103E000207149A1F8080170494F
:1027D000B1F80801314603F001F80020BDEC048B8C
:1027E000BDE8F0812DE9F0412DED048B05460E4644
:1027F0001746002400EE105AB8EEC00ADFED6F0A4B
:1028000080EE201AB0EE418A00EE106AB8EEC00ADF
:10281000DFED6A0A80EE201AF0EE418A00EE107AAF
:10282000B8EEC00ADFED660A20EE200ADFED650A89
:1028300020EE200AB0EE409A00BF26E0624800EB8E
:10284000840090ED000A20EE080A5F48103000EB8B
:102850008400D0ED000A00EEA80A30EE090A4C48C8
:10286000083000EB841080ED0D0A4948083000EB79
:102870008410D0ED0D0AB0EE600A03F073F84449FD
:10288000083101EB84118863641C042CD6DB71B61B
:1028900000240AE03E48083000EB8410816B3C487D
:1028A000083000EB8410C162641C042CF2DB61B6BA
:1028B0000020BDEC048BBDE8F08170B52DED0A8BD6
:1028C00082B004460D4616469FED400AB0EE409A8F
:1028D0009FED3E0AF0EE408A9FED3C0AB0EE408A42
:1028E0009FED3A0AF0EE409A9FED380AB0EE40AA0A
:1028F00000EE104AB8EEC00A3548D0ED000A30EEBE
:10290000600AB0EE409A00EE105AB8EEC00A3148A4
:10291000D0ED000A30EE600AF0EE408A29EE090A96
:1029200008EEA80AB0EE408AB0EE480AB5EEC00A3A
:10293000F1EE10FA04DDF1EEC00ACDED010A04E07B
:10294000DFED220ACDED010A00BF9DED010ADFEDAA
:10295000220A30EE200AB0EE408A89EE080AF0EE34
:10296000409A88EE880AB0EE40AAB3EE040AB4EEAC
:10297000C08AF1EE10FA6BDDB3EE040AB0EE408AC5
:1029800028EE290AB0EE409A28E000008C270020AB
:10299000D0040020B8000020BA00002080E100E050
:1029A00094000020333333333333D33F9A999999CA
:1029B0009999D93F000000000000E03F0000C842A4
:1029C000CDCCCC3C9EEFA73D0806002000000000C7
:1029D000C8000020CC0000206F12833A28EE0A0ABB
:1029E000F0EE408A824890ED000A30EE090A10EEBF
:1029F000101A084610F000F841EC1C0BB0EE4C0A1F
:102A0000F0EE6C0A0DF0C4FDB0EE40BAF0EE60BA24
:102A100051EC1B0B0FF036FC0446764890ED000A93
:102A200030EE280A10EE101A08460FF0E5FF41ECD0
:102A30001C0BB0EE4C0AF0EE6C0A0DF0A9FDB0EEE6
:102A400040BAF0EE60BA51EC1B0B0FF01BFC0546D0
:102A5000324629462046FFF7C5FE00EE104AB8EE82
:102A6000C00A634880ED000A00EE105AB8EEC00AB2
:102A7000604880ED000A002002B0BDEC0A8B70BDFA
:102A800070B504460D465C48C0F810418CB1012079
:102A900004F028FE062000F0A1F802F0BDFE012897
:102AA00004D121460020FFF7ABFD06E002F0BDFE99
:102AB00003E015B90CB902F0C6FE002070BD70B578
:102AC00005460C464C48C0F8144184B1012004F07E
:102AD00009FE062000F082F802F09EFE012803D1D4
:102AE0002146FFF78DFD06E002F09FFE03E014B9DA
:102AF0000DB902F0A8FE002070BD10B504463F4895
:102B00000068401C3D490860084600680F2804DA48
:102B10004FF480703A49088303E04FF480703849DD
:102B20004883364800681E2802DD002033490860CB
:102B30003148007918B933480078012807D02E4869
:102B40000079052803D02C48007906280FD1606849
:102B5000FFF7D5FDD4E90201FFF792FFD4E90201A6
:102B6000FFF7ADFFD4E905122069FFF7A6FE0020AC
:102B700010BD10B5044624480068401C2249086076
:102B8000084600680F2804DA4FF480701C49088357
:102B900003E04FF480701A4948831B4800681E28E0
:102BA00002DD0020184908601348007901280FD180
:102BB0006068FFF7A4FDD4E90201FFF761FFD4E9E3
:102BC0000201FFF77CFFD4E905122069FFF775FECB
:102BD000002010BD10B5FFF755FD10BD00F01F021D
:102BE00001219140094A430942F82310704700002F
:102BF000C8000020CC000020D0040020D00000201D
:102C0000000002400C000020D400002080E200E020
:102C100010B54FF48070FE49C8600021FC48016186
:102C2000FC48FB494860FC488860FC48086000207C
:102C3000C1F81401FDF728FBFDF77CFBFDF76FFBE6
:102C4000002010BD70B51921F1480161F4480078E9
:102C500000287DD1F348C078C0F3C00050B9F148D6
:102C6000C079C0F3C00028B9EE48C07AC0F3C000F4
:102C700000286ED000250020EB490870EB48006862
:102C800008280CDDE748407800F00F00E749097894
:102C9000093901228A40104060B96D1E0AE0E148FE
:102CA0008078E2490978491E01228A40104008B91B
:102CB0004FF0FF35681C002834D00025DB48006841
:102CC000092810DA002408E0D64881780120A040C5
:102CD000014009B1681C05B2641CD4480068401E5C
:102CE000A042F1DC1EE0002408E0CE4880780121FB
:102CF000A140084008B1681C05B2641C082CF4DB34
:102D000000240AE0C748407800F00F010120A040ED
:102D1000014009B1681C05B2641CC4480068093848
:102D2000A042EFDC681C00287BD0A800C01CBD4975
:102D3000085CC0F3C000002873D0BD48FDF728FD33
:102D4000B948007801286CD1B9480178B04801E051
:102D500067E01FE00175B6484178AD484175B44859
:102D60008178AB488175B248C178A948C175B0482F
:102D70000179A7480176AE484179A54841761321EB
:102D80001A300CF00EFEA248816888470120A9493C
:102D9000087046E0A648FDF751FDFF219C480175EB
:102DA00002214175A248817899488175A048C1786F
:102DB0009748C1759E480179954801769C484179AC
:102DC000934841769A488179914881769848C179AB
:102DD0008F48C1769648017A8D4801779448417AA8
:102DE0008B4841779248817A894881779048C17AA7
:102DF0008748C1778E48017B854880F820108C4831
:102E0000417B834880F821108948817B804880F885
:102E100022100F3000214161816181830F38816868
:102E20008847012083490870002070BD30B587B005
:102E300004460D468048006858B929462046FDF7EB
:102E4000EDFD774908700846007810B901207A49ED
:102E50000860FFF7F7FE21467848FEF7BFF8704894
:102E60000078D0B971480079B8B91C2168460CF0D7
:102E7000BAFD2A4621466846FDF7E9FD002808DA32
:102E80006848C069401C6749C8614FF0FF3007B00F
:102E900030BD6846FFF731FE35E06448007905280B
:102EA00016D11C2168460CF09EFD2A462146684634
:102EB000FDF7D1FE002807DA5A48C069401C59497D
:102EC000C8614FF0FF30E2E76846FFF716FE1AE0F0
:102ED00056480079062816D11C2168460CF083FD5F
:102EE0002A4621466846FDF794FF002807DA4D4838
:102EF000C069401C4B49C8614FF0FF30C7E76846C6
:102F0000FFF7FBFD00BF0020C1E710B5FDF70BFA8E
:102F1000002841D04548407918BB3D484168884762
:102F2000002839DDFDF702FA394800F11401026981
:102F30003C480CF004FD3648007C3A494876084687
:102F4000417EFFF773FF3E480078FE2803DD002036
:102F50003B49087020E03A480078401C3849087026
:102F60001AE032484079012816D101F06BFA0128A5
:102F700012D13448FFF77FFA70B919223149294834
:102F80000CF098FC1920274948760846417EFFF747
:102F90004DFF00202C490870002010BD2DE9F0479E
:102FA0002DED0C8B84B0044600210291039100208A
:102FB000009001908046814682462778657C032DEB
:102FC00001DA002505E0284605EBD0714910C91C3F
:102FD000CDB2A67C9FED1D8ADFED1D0A9FED1D0A77
:102FE000B0EE40BA08EE60BADFED1B8ADFED1B0AD7
:102FF0009FED180AF0EE40BA48EEE0BA9FED18AA2D
:10300000DFED130A9FED130AB0EE40DA2AE000006C
:10301000800300206D030008A9030008890200084E
:10302000D80000209C27002004000020D0040020AD
:10303000DC2800204E000020DC000020D8270020E3
:10304000D900002070270020B400002092762CC008
:103050000000204300000000ABAA2AC00000C042CC
:1030600092762C400AEE60DADFEDB5AA5FED050A34
:103070001FED080AF0EE40DA4AEEE0DA1FED089A9A
:103080005FED0D0A1FED0D0AB0EE40CA09EE60CAF1
:10309000DFEDAB9A5FED0F0A1FED120AF0EE40CAAA
:1030A00049EEE0CAE078A02807DCE078602804DB7D
:1030B0000020A4494861824601E04FF0010A2079CE
:1030C000A02807DC2079602804DB00209D490861E6
:1030D000814601E04FF001096079A02808DC6079A1
:1030E000602805DB0020974988614FF0010801E066
:1030F0004FF000082079A0280EDB207900EE100A9E
:10310000F8EE400AB0EE4B0A08EE200ABDEEC00A07
:103110008C4880ED040A10E0207960280DDC2079CD
:1031200000EE100AF8EE400AB0EE6B0A08EEA00AB4
:10313000BDEEC00A834880ED040AE078A0280EDBCB
:10314000E07800EE100AF8EE400AB0EE4D0A0AEE02
:10315000200ABDEEC00A7B4880ED050A10E0E07849
:1031600060280DDCE07800EE100AF8EE400AB0EEC0
:103170006D0A0AEEA00ABDEEC00A724880ED050A8B
:103180006079A0280EDB607900EE100AF8EE400AA4
:10319000B0EE4C0A09EE200ABDEEC00A694880ED87
:1031A000060A10E0607960280DDC607900EE100AF4
:1031B000F8EE400AB0EE6C0A09EEA00ABDEEC00AB5
:1031C000604880ED060A00BF07F0010088B35E4842
:1031D0000068401C5C4908600846006801280DD161
:1031E000FFF774F8594A106051607F2D03DB7F2090
:1031F0005449886001E05348856064E0FFF766F851
:10320000CDE902015149DDE902200B684968D31A72
:1032100060EB010040F6C4120021D21A81410CD2A9
:103220000020494908607F2D04DB7F2045498860E4
:1032300002E006E04348856045E00020414988609F
:1032400041E0C7F3800088B341480068401C404912
:1032500008600846006801280DD1FFF737F83D4A9D
:10326000106051607F2D03DB7F203649C86001E08C
:103270003448C56027E0FFF729F8CDE9000135495A
:10328000DDE900200B684968D31A60EB010040F6C5
:10329000C4120021D21A81410CD200202C490860AE
:1032A0007F2D04DB7F202749C86002E006E0254827
:1032B000C56008E000202349C86004E000202149DF
:1032C0008860C86000BF00BF402E03DA00201D499F
:1032D000486014E0402E05DB802E03DA01201949F6
:1032E00048600CE0802E05DBC02E03DA0220154971
:1032F000486004E0C02E02DB032012494860B8F1A8
:10330000010F11D1B9F1010F02D0BAF1010F0BD1A8
:10331000012011490870114890ED0C0ABDEEC00A59
:10332000084880ED060A02E000200B4908700548B5
:10333000FFF71FFC002004B0BDEC0C8BBDE8F0874C
:10334000ABAA2A40BC270020E0000020E8000020B3
:10335000E4000020F0000020DA00002098040020A3
:1033600030B50446002003E0155C4D5D2554401C3B
:103370009842F9DB30BD30B590B00346002008E03C
:10338000441894FBF2F502FB15441C5D0DF8004057
:10339000401C9042F4DB002003E01DF800401C5468
:1033A000401C9042F9DB10B030BD70B5049C03E0C6
:1033B00011F8015B00F8015B1D1EA3F10103F7D1B9
:1033C00003E012F8015B00F8015B251EA4F1010483
:1033D000F7D170BD70B50446002004E00D5C165CAA
:1033E00075402554401C9842F8DB70BD2DE9F0472C
:1033F000ADF5AB6D81468A46174698463823FE4A9E
:1034000039460DF5A460FFF7ABFF002506E00DF58A
:10341000A460405D0DF2045148556D1C1C2DF6DB77
:10342000002507E00DF5A46105F11C00085C3839A2
:1034300048556D1C1C2DF5DB002524E0EF48415D4F
:103440001C220DF20450FFF796FFEC48415D1C2250
:103450000DF59D60FFF78FFF1C2003460DF59D6263
:103460000DF2045100900DF59660FFF79EFF05EBFD
:1034700045016CAA02EB01103023E14A0DF596617B
:10348000FFF76EFF6D1C102DD8DB4023DD4A51463F
:103490005CA8FFF765FF00240AE05CA8005D54A962
:1034A00008555CA904F12000085C4CA90855641C6F
:1034B000202CF2DB0025AAE03023D34A4CA930A807
:1034C000FFF74EFFB8F1000F01D0284601E0C5F12B
:1034D0000F0000EB40006CA901EB0012302330A973
:1034E00024A8FFF777FF002411E000260CE004EB8E
:1034F000440006EB400024A9085C04EB440118AA30
:1035000002EB41018855761C062EF0DB641C082C6A
:10351000EBDB002446E004EB440218AB03EB420271
:10352000527904EB44030DF1600C1CF8133042EAAD
:10353000430004EB440218AB03EB42025278D20082
:1035400004EB44030CEB43039B7842EA830204EB55
:1035500044030CEB4303DB7842EA430204EB4403ED
:103560000CEB43031B7942EA0301002617E0A74A4C
:1035700002EB841202EB0012525CC6F1030C012331
:1035800003FA0CF31A400AB1012200E0002204EB16
:1035900044030DF1600C0CEB43039A55761C042E8A
:1035A000E5DB641C082CB6DB00240FE000260AE0F3
:1035B00004EB440018A901EB4000805D06EB840198
:1035C00010AA5054761C042EF2DB641C082CEDDB90
:1035D00020238F4A10A908A8FFF7C2FE202308AABB
:1035E00054A96846FFF7F6FE002404E04CA8005DED
:1035F00054A90855641C202CF8DB002404E01DF8B5
:1036000004004CA90855641C202CF8DB6D1C102DFF
:10361000FFF652AF2020034654AA4CA900903CA8C4
:10362000FFF7C3FE40237B4A3CA94846FFF798FEBC
:103630000DF5AB6DBDE8F08710B503785B100B702E
:103640000378DB075B0E447843EAA4034B704378AE
:103650009B075B0E847843EAE4038B7083785B07F7
:103660005B0EC47843EA2413CB70C3781B075B0E50
:10367000047943EA64130B710379DB065B0E44792A
:1036800043EAA4134B7143799B065B0E847943EAAA
:10369000E4138B71837903F07F03CB71002204E084
:1036A0008B5C5B061B0E8B54521C082AF8DB10BD8A
:1036B000027802F0FE02437842EAD3120A7042789E
:1036C00002F07E025200837842EA93124A708278B6
:1036D00002F03E029200C37842EA53128A70C27826
:1036E00002F01E02D200037942EA1312CA70027974
:1036F00002F00E021201437942EAD3020A714279C2
:1037000002F006025201837942EA93024A718279F9
:1037100002F002029201C37942EA53028A717047B1
:103720002DE9F041B2B005460E4617469846694667
:103730003846FFF781FF002436E02046E21704EB0D
:103740005272D210B25C2146E31704EB5373DB10C4
:10375000A4EBC303C3F1070C012303FA0CF31A40D3
:103760000AB1012200E0002212AB1A552046E217EE
:1037700004EB5272D2101DF802202146E31704EB2D
:103780005373DB10A4EBC303C3F1070C012303FA4B
:103790000CF31A400AB1012200E0002202AB1A55D4
:1037A000002022A90855641C402CC6DB434602AA0F
:1037B00012A922A8FFF71AFE002402E000202855D3
:1037C000641C082CFADB00242CE022A8005D40B326
:1037D000E21704EB5272D210AA5C2146E31704EB05
:1037E0005373DB10A4EBC303C3F1070C012303FAEB
:1037F0000CF31A4320460FE0F02B0108282D010896
:10380000282C0108582C0108982C0108382D010893
:10381000C82C0108E82C0108E31704EB5373DB10F4
:10382000EA54641C402CD0DB32B0BDE8F08170B5A6
:103830008CB006460C4615460020089009900A9068
:103840000B900490059006900790009001900290D4
:103850000390072D16DD20680890A088ADF824009D
:10386000A0798DF826000F2D05DAEA1FE11D04A8C6
:103870000CF020F80FE0D4F807000490D4F80B0007
:10388000059008E02A46214608A80CF013F824A168
:1038900003C9CDE90401012308AA04A96846FFF77A
:1038A0003FFF00983060019870600CB070BD70B53B
:1038B00006460D4600240FE02CB92A5D1BA13046B8
:1038C0000BF0FCFD07E02A5D04EB44013144481E87
:1038D00018A10BF0F3FD641C082CEDDB70BD30B5B6
:1038E00089B004460D460020079008900DF1230092
:1038F000411E821E08ABCDE90232CDE90410001F43
:10390000411E831E07AACDE900100CA128460BF02A
:1039100001FF079820600898606009B030BD000082
:10392000687A6E6A726F626F7400000025303278B8
:10393000000000002D2530327800000025782D256C
:10394000782D25782D25782D25782D25782D25780D
:103950002D25780070B505460C46012004F093FD36
:1039600000BF612004F031FD0028FAD045F2555027
:1039700004F076FC284604F076FC204604F076FC41
:1039800004F077FC04F07AFC70BD10B504F071FC13
:1039900010BD4FF480700E49488380000D490880A7
:1039A00020200B4908830C4908804002891E0880AA
:1039B00002200A490880C001088080200880042075
:1039C00004490880891E088008200880704700008C
:1039D000000002401A0C02401A0402401A08024079
:1039E0001FB5002102910391009101910124FEA0D5
:1039F000FEF7AEFCFEF76AFC643041F10001CDE950
:103A0000000129E01420FEF71DFCF848FEF7D7FC62
:103A1000A8B9F7480078012805D10020F4490870BA
:103A200004F0010419E0FEF751FCCDE9020101A800
:103A30000DC80099891A98410ED200240DE0FEF7B6
:103A400045FCCDE90201DDE90231DDE90020D21AB1
:103A5000884101D2002400E0D4E700BF204604B032
:103A600010BD70B58CB000210A910B91089109919D
:103A700000250020059006900790142168460BF061
:103A8000B2FF01260024FEF721FC643041F1000161
:103A9000CDE90801D748806820F07F454E208DF899
:103AA00014004A208DF815005F208DF81600280DAF
:103AB0008DF81700C5F303408DF81800C5F30330E7
:103AC0008DF81900C5F303208DF81A00C5F3031013
:103AD0008DF81B0005F00F008DF81C0003240FE08B
:103AE00005A8005D0A2805DA05A8005D303005A9A3
:103AF000085504E005A8005D373005A90855641C89
:103B0000092CEDDBBCA168460BF0C8FE05A9684690
:103B10000BF0C4FE6846FEF71BFC2AE01420FEF7FB
:103B200091FBB248FEF74BFCB0B9B14800780128D0
:103B300005D10020AE49087006F001061AE0FEF734
:103B4000C5FBCDE90A01DDE90830DDE90A219A1A51
:103B500088410ED200260DE0FEF7B8FBCDE90A0140
:103B6000DDE90830DDE90A12591A904101D2002638
:103B700000E0D3E700BF142168460BF034FFFEF7E6
:103B8000A5FB643041F10001CDE908019948806846
:103B900020F07F454E208DF814004A208DF8150046
:103BA0005F208DF81600280D8DF81700C5F303402F
:103BB0008DF81800C5F303308DF81900C5F3032004
:103BC0008DF81A00C5F303108DF81B0005F00F00E7
:103BD0008DF81C0003240FE005A8005D0A2805DA13
:103BE00005A8005D303005A9085504E005A8005D72
:103BF000373005A90855641C092CEDDB80A1684607
:103C00000BF04CFE05A968460BF048FE6846FEF72F
:103C10009FFB2AE01420FEF715FB7448FEF7CFFB4C
:103C2000B0B973480078012805D1002070490870A8
:103C300006F001061AE0FEF749FBCDE90A01DDE9CD
:103C40000A32DDE90810C91A90410ED200260DE0B3
:103C5000FEF73CFBCDE90A01DDE90830DDE90A2188
:103C60009A1A884101D2002600E0D3E700BF30460F
:103C70000CB070BD30B58DB0044600210A910B9197
:103C8000089109910020059006900790142168463C
:103C90000BF0A9FE0125FEF719FB643041F100018C
:103CA000CDE9080120680590606806902089ADF88C
:103CB0001C0051A168460BF0F1FD05A968460BF008
:103CC000EDFD6846FEF744FB2AE01420FEF7BAFA41
:103CD0004648FEF774FBB0B945480078012805D185
:103CE00000204349087005F001051AE0FEF7EEFADE
:103CF000CDE90A01DDE90830DDE90A12591A9041DF
:103D00000ED200250DE0FEF7E1FACDE90A01DDE96A
:103D10000A31DDE90820D21A884101D2002500E0ED
:103D2000D3E700BF142168460BF05DFEFEF7CEFA24
:103D3000643041F10001CDE9080120680590606818
:103D400006902089ADF81C002DA168460BF0A6FD59
:103D500005A968460BF0A2FD6846FEF7F9FA2AE0CD
:103D60001420FEF76FFA2148FEF729FBB0B920486E
:103D70000078012805D100201D49087005F00105D3
:103D80001AE0FEF7A3FACDE90A01DDE90830DDE922
:103D90000A12591A90410ED200250DE0FEF796FA4C
:103DA000CDE90A01DDE90830DDE90A219A1A8841E6
:103DB00001D2002500E0D3E700BF28460DB030BD9A
:103DC00030B58DB0044600210A910B9108910991FC
:103DD000002006900790142101A80BF004FE012595
:103DE000FEF774FA64300FE04154000070270020A1
:103DF000B3000020F828002041542B4E414D4500CF
:103E000041542B4E414D420041F10001CDE90801E2
:103E100020680690A088ADF81C00FEA101A80BF058
:103E20003DFD06A901A80BF039FD01A8FEF790FAA7
:103E30002AE01420FEF706FAF848FEF7C0FAB0B9F7
:103E4000F7480078012805D10020F549087005F0F1
:103E500001051AE0FEF73AFACDE90A01DDE908307A
:103E6000DDE90A12591A90410ED200250DE0FEF745
:103E70002DFACDE90A01DDE90830DDE90A12591A07
:103E8000904101D2002500E0D3E700BF142101A832
:103E90000BF0A9FDFEF71AFA643041F10001CDE9FB
:103EA000080120680690A088ADF81C00DDA101A8DB
:103EB0000BF0F4FC06A901A80BF0F0FC01A8FEF73A
:103EC00047FA2AE01420FEF7BDF9D448FEF777FA46
:103ED000B0B9D3480078012805D10020D049087036
:103EE00005F001051AE0FEF7F1F9CDE90A01DDE977
:103EF0000830DDE90A12591A90410ED200250DE072
:103F0000FEF7E4F9CDE90A01DDE90A32DDE908103E
:103F1000C91A904101D2002500E0D3E700BF28462E
:103F20000DB030BD30B58BB0044600210891099129
:103F30000691079100200590142168460BF053FD6F
:103F40000125FEF7C3F9643041F10001CDE9060116
:103F500004F13000C0B28DF81400B4A168460BF033
:103F60009DFC05A968460BF099FC6846FEF7F0F940
:103F70002AE01420FEF766F9A848FEF720FAB0B947
:103F8000A7480078012805D10020A549087005F050
:103F900001051AE0FEF79AF9CDE90801DDE90831DB
:103FA000DDE90620D21A88410ED200250DE0FEF789
:103FB0008DF9CDE90801DDE90831DDE90620D21AE5
:103FC000884101D2002500E0D3E700BF28460BB0AE
:103FD00030BD30B58BB0044600210891099106919F
:103FE000079100200590142168460BF0FCFC012588
:103FF000FEF76CF9643041F10001CDE9060104F1EE
:104000003000C0B28DF814008AA168460BF046FC5F
:1040100005A968460BF042FC6846FEF799F92AE0CC
:104020001420FEF70FF97D48FEF7C9F9B0B97C48B6
:104030000078012805D100207949087005F00105B4
:104040001AE0FEF743F9CDE90801DDE90831DDE9C1
:104050000620D21A88410ED200250DE0FEF736F96F
:10406000CDE90801DDE90831DDE90620D21A8841F1
:1040700001D2002500E0D3E700BF28460BB030BDD9
:1040800030B58BB004460021089109910691079143
:1040900000200590142168460BF0A5FC0125FEF7D1
:1040A00015F9643041F10001CDE9060104F1300059
:1040B000C0B28DF8140061A168460BF0EFFB05A9B2
:1040C00068460BF0EBFB6846FEF742F92AE0142045
:1040D000FEF7B8F85148FEF772F9B0B950480078C9
:1040E000012805D100204E49087005F001051AE0AD
:1040F000FEF7ECF8CDE90801DDE90831DDE906203D
:10410000D21A88410ED200250DE0FEF7DFF8CDE986
:104110000801DDE90831DDE90620D21A884101D223
:10412000002500E0D3E700BF28460BB030BD30B516
:104130008BB0044600210891099106910791002057
:104140000590142168460BF04EFC0125FEF7BEF8E1
:10415000643041F10001CDE9060104F13000C0B244
:104160008DF8140037A168460BF098FB05A9684646
:104170000BF094FB6846FEF7EBF82AE01420FEF7FC
:1041800061F82648FEF71BF9B0B9254800780128E8
:1041900005D100202249087005F001051AE0FEF75C
:1041A00095F8CDE90801DDE90831DDE90620D21AEC
:1041B00088410ED200250DE0FEF788F8CDE9080110
:1041C000DDE90831DDE90620D21A884101D2002557
:1041D00000E0D3E700BF28460BB030BD30B58BB050
:1041E000044600210891099106910791002005904D
:1041F000142168460BF0F7FB0125FEF767F86430E1
:1042000041F10001CDE9060104F13000C0B28DF8A2
:1042100014001BE041542B50494E450070270020EC
:10422000B300002041542B50494E420041542B42D0
:104230004155440041542B50494F310041542B44C7
:1042400055414C0041542B4849474800B0A16846AD
:104250000BF024FB05A968460BF020FB6846FEF72F
:1042600077F82AE01420FDF7EDFFAB48FEF7A7F83A
:10427000B0B9AA480078012805D10020A7490870E4
:1042800005F001051AE0FEF721F8CDE90801DDE9A6
:104290000630DDE90812591A90410ED200250DE0D2
:1042A000FEF714F8CDE90801DDE90831DDE9062063
:1042B000D21A884101D2002500E0D3E700BF1421C3
:1042C00068460BF090FBFEF701F8643041F1000105
:1042D000CDE9060104F13000C0B28DF8140090A1C0
:1042E00068460BF0DBFA05A968460BF0D7FA68467A
:1042F000FEF72EF829E01420FDF7A4FF8648FEF70C
:104300005EF8A8B985480078012805D100208349C6
:10431000087005F0010519E0FDF7D8FFCDE90801A7
:1043200007A80DC80699891A98410ED200250DE0FC
:10433000FDF7CCFFCDE90801DDE90831DDE9062014
:10434000D21A884101D2002500E0D4E700BF2846F8
:104350000BB030BD30B58BB00446002108910991F7
:104360000691079100200590142168460BF03BFB55
:104370000125FDF7ABFF643041F10001CDE90601F5
:1043800004F13000C0B28DF8140067A168460BF04C
:1043900085FA05A968460BF081FA6846FDF7D8FF53
:1043A0002AE01420FDF74EFF5B48FEF708F8B0B98D
:1043B0005A480078012805D100205849087005F0B6
:1043C00001051AE0FDF782FFCDE90801DDE90831BA
:1043D000DDE90620D21A88410ED200250DE0FDF756
:1043E00075FFCDE90801DDE90831DDE90620D21AC3
:1043F000884101D2002500E0D3E700BF28460BB07A
:1044000030BD10B50124FFF7EBFAFFF72AFB04409B
:104410000120FFF7DEFD04400620FFF783FD044086
:104420000020FFF72DFE04400020FFF780FE04402F
:104430000020FFF7D3FE04400120FFF78BFF04406C
:10444000204610BD10B500243348FDF7B8FF002802
:1044500052D13248007801284ED100202F490870EF
:104460002D48C07843280BD12B4800794F2807D11D
:10447000294840794E2803D12748807945280FD014
:104480002548C078432811D1234800794F280DD101
:10449000214840794E2809D11F488079422805D10A
:1044A0000124012022490870204610BD1A48C07816
:1044B0004C280BD118480079532807D11648407969
:1044C000542803D11448807945280FD01248C07869
:1044D0004C2811D11048007953280DD10E4840794D
:1044E000542809D10C488079422805D100240020A5
:1044F0000F4908702046D8E70D480078012800D100
:10450000D3E70B48007808B90020CEE72046CCE777
:1045100041542B494D4D450070270020B300002029
:1045200041542B494D4D420041542B4E4F544900AC
:10453000FF0000201CB50121880504F0DAF84FF4D3
:104540004060009002208DF805008DF804000020E6
:104550008DF8070001208DF806006946F84803F041
:10456000ABFB04220A21F64803F031FC04220B21A4
:10457000F34803F02CFC1CBD1FB50020ADF804006F
:104580004FF48060ADF80A000001ADF80C00ED4872
:1045900000906946EC4803F078FC0121EA4803F0FA
:1045A000F0FC0121E84803F018FD1FBD70B504467A
:1045B00000BF4FF40031E44803F009FE0028F8D1B1
:1045C0000121E14803F0E9FC00BFE049DE4803F0C7
:1045D000DCFD0028F9D00022D021DB4803F0F5FCF7
:1045E00000BFDB49D84803F0D0FD0028F9D02146B0
:1045F000D54803F06EFD00BFD549891CD24803F0B1
:10460000C4FD0028F8D00121CF4803F0C6FC00BF4C
:10461000CE49CD4803F0B9FD0028F9D00122D021C0
:10462000C94803F0D2FC00BFC849491CC64803F082
:10463000ACFD0028F8D000BFC4493F31C24803F0A8
:10464000A4FD0028F8D0C04803F045FD0546002130
:10465000BD4803F0C2FC0121BB4803F0AAFC284678
:1046600070BD10B54FF40060B5491A3108800A20BA
:10467000FDF7FFFD4FF48060B149183108800A2032
:10468000FDF7F7FD4FF40060AD49183108800A20AE
:10469000FDF7EFFD10BD10B5FFF7E3FF10BD10B53E
:1046A0004FF40060A649183108800A20FDF7E1FDAB
:1046B0004FF48060A249183108800A20FDF7D9FD27
:1046C0004FF400609E491A3108800A20FDF7D1FDA1
:1046D0004FF480609A491A3108800A20FDF7C9FD1D
:1046E00010BD10B54FF400609549183108800A20BC
:1046F000FDF7BFFD4FF480609149183108800A2012
:10470000FDF7B7FD8E481030006800F400641CB15E
:10471000FFF7A7FF002010BD4FF4806088491A31D1
:1047200008800A20FDF7A5FD0120F4E770B50546D5
:1047300071B6002421E005FA04F000F0800028B1F1
:104740004FF400607E491831088004E04FF40060A7
:104750007B491A3108800A20FDF78BFD4FF48060F9
:104760007749183108800A20FDF783FD4FF48060F7
:1047700073491A310880601CC4B2082CDBDB0A20A4
:10478000FDF777FDFFF7ADFF064661B6304670BD19
:1047900070B50826002471B64FF4006068491831DE
:1047A00008801FE00A20FDF764FD4FF48060644933
:1047B0001A3108800A20FDF75CFD4FF480606049E3
:1047C000183108800A20FDF754FD6006040E5C488D
:1047D0001030006800F400650DB144F001040A20B7
:1047E000FDF747FD301EA6F10101CEB2DAD14FF43C
:1047F000806053491A3108800A20FDF73AFD61B6FE
:10480000204670BD10B504462CB94FF400604C49E9
:104810001A31088004E04FF40060494918310880DB
:104820000A20FDF726FD4FF48060454918310880C5
:104830000A20FDF71EFD4FF4806041491A310880BF
:104840000A20FDF716FD10BD2DE9F04105460E4684
:104850001746FFF724FF05F0FE00FFF767FF8046CD
:10486000B8F1000F02D10020BDE8F08100240AE079
:10487000305DFFF75BFF8046B8F1000F01D12046A5
:10488000F2E7601CC4B2381EA7F10101CFB2EFD12C
:10489000FFF7E7FE0A20FDF7ECFC2046E4E72DE9F0
:1048A000F04107460D461646FFF7F9FE47F00100B6
:1048B000FFF73CFF8046B8F1000F02D10020BDE8B1
:1048C000F08100240CE0FFF763FF28550020FFF77C
:1048D00099FF0A20FDF7CDFC701EC6B2601CC4B261
:1048E000012EF0DCFFF754FF28550120FFF78AFF67
:1048F0000A20FDF7BEFCFFF7B4FE0A20FDF7B9FC65
:10490000601CC4B22046DAE770B50446FFF7C7FE64
:1049100004F0FE00FFF70AFF05460DB9002070BD48
:10492000FFF79FFE0A20FDF7A4FC0120F7E72DE921
:10493000F05F80460C46154665B9BDE8F09F000063
:1049400000040240503403000058004001000300FE
:104950008200070071B62046E11704EB5171C910BF
:10496000A4EBC101C1F10801CFB2AF4200D9EFB24F
:10497000002651E0FFF793FE2112A02202EB410135
:10498000C8B2FFF7D3FEA246E11704EB116109128A
:10499000A4EB0121C8B2FFF7C9FE05E098F80000BA
:1049A000FFF7C4FE08F10108381EA7F10101CFB2DC
:1049B000F4D1FFF756FE4FF0000BD94616E00A205F
:1049C000FDF777FC09F1010000F0FF09FFF767FE32
:1049D0002112A02202EB4101C8B2FFF7A7FE8346D5
:1049E000FFF73FFEBBF1000F00DD02E0B9F10A0F57
:1049F000E5DB00BFB9F10A0F01D161B69DE73E4486
:104A0000E01984B2AE4200D307E0A81B082801D900
:104A1000082701E0A81BC7B2ACE700BF61B600BF22
:104A20008BE72DE9F04105460C4617464FF000088C
:104A300071B6FFF734FE2112A02202EB4101C8B289
:104A4000FFF774FE2646E11704EB11610912A4EB8F
:104A50000121C8B2FFF76AFEFFF721FE2112A12251
:104A600002EB4101C8B2FFF761FE4FF0000808E019
:104A7000FFF78EFE28700020FFF7C4FE6D1C08F1C2
:104A80000108781E4045F3D8FFF782FE2870012008
:104A9000FFF7B8FEFFF7E5FD61B6BDE8F0812DE94F
:104AA000F04104460E46174671B6FFF7F8FD04F0D4
:104AB000FE00FFF73BFE054605B91DE03046FFF757
:104AC00035FE054605B917E0FFF7E9FD44F00100A2
:104AD000FFF72CFE054605B90EE0FFF759FE3870CA
:104AE0000120FFF78FFEFFF7BCFD0A20FDF7C1FB99
:104AF00061B60120BDE8F081FFF7B3FD0A20FDF7A4
:104B0000B8FB61B60020F5E7F8B506460C46154639
:104B10008DF800408DF8015071B60222694630468A
:104B2000FFF792FE074661B6002F01DD0120F8BDB8
:104B30000020FCE72DE9F84F80460C4615460DB9DC
:104B4000BDE8F88F71B62046E11704EBD161491139
:104B5000A4EB4111C1F12001CFB2AF4200D9EFB2B5
:104B60000026BA4652E0FFF79AFDA020FFF7DEFDCF
:104B7000A346E11704EB1161C1F30720FFF7D6FD4F
:104B8000E11704EB11610912A4EB0121C8B2FFF790
:104B9000CDFD05E098F80000FFF7C8FD08F1010819
:104BA000381EA7F10101CFB2F4D1FFF75AFD002062
:104BB0000090814612E00A20FDF77BFB09F101001D
:104BC00000F0FF09FFF76BFDA020FFF7AFFD00909D
:104BD000FFF747FD0098002800DD02E0B9F10A0F59
:104BE000E9DB00BFB9F10A0F01D161B6A8E756446D
:104BF00004EB0A0084B2AE4200D308E0A81B2028D0
:104C000001D9202701E0A81BC7B2BA46ABE700BF15
:104C100061B600BF94E72DE9F04105460C46174602
:104C20004FF0000871B6FFF73AFDA020FFF77EFDB8
:104C30002646E11704EB1161C1F30720FFF776FD6B
:104C4000E11704EB11610912A4EB0121C8B2FFF7CF
:104C50006DFDFFF724FDA120FFF768FD4FF0000870
:104C600008E0FFF795FD28700020FFF7CBFD6D1CD5
:104C700008F10108781E4045F3D8FFF789FD287038
:104C80000120FFF7BFFDFFF7ECFC61B6BDE8F08146
:104C900010B501211F2003F0F9FC0121084603F0A3
:104CA00039FD0121084603F024FD0121022003F013
:104CB00020FD0121082003F01CFD0121042003F048
:104CC00018FD0121102003F014FD0121202003F024
:104CD00010FD0121080403F01DFD0121480403F02B
:104CE00019FD0121880403F015FD0121402003F086
:104CF00000FD0121C80303F0FCFC0121880403F03E
:104D0000F8FC0121080203F005FD0121880303F0EE
:104D100001FD10BD08B500F0A2FD4FF4C06003F026
:104D2000BFFA27208DF8000001208DF80100022035
:104D30008DF8020001208DF80300684603F0B5FAF3
:104D400008BD1CB50320009002208DF8040000204F
:104D50008DF8060002208DF8050000208DF8070070
:104D60006946F84802F0A8FF02220021F54803F046
:104D70002EF802220121F34803F029F8C020009008
:104D80006946F04802F098FF02220621ED4803F040
:104D90001EF802220721EB4803F019F8C02000900A
:104DA0006946E94802F088FF02220621E64803F03E
:104DB0000EF802220721E44803F009F84FF40040FE
:104DC00000906946DF4802F077FF082000906946AE
:104DD000DD4802F071FF01220F21DA4802F0F7FFEF
:104DE00001220321D84802F0F2FF4FF4D440009092
:104DF0006946D64802F060FF01220921D34802F03B
:104E0000E6FF01220B21D14802F0E1FF01220D2132
:104E1000CE4802F0DCFF01220E21CC4802F0D7FF81
:104E20004FF4007000906946C74802F045FF032226
:104E30000921C54802F0CBFF4FF48070009069460D
:104E4000C14802F039FF03220821BF4802F0BFFF2A
:104E50000C2000906946BB4802F02EFF032202217D
:104E6000B84802F0B4FF03221146B64802F0AFFF83
:104E7000032000908DF804006946B34802F01CFF3F
:104E800002208DF804004FF4E05000906946AD48D0
:104E900002F012FF0A221146AA4802F098FF0A22E5
:104EA0000B21A84802F093FF0A220C21A54802F02A
:104EB0008EFF4FF4E05000906946A54802F0FCFEDA
:104EC00006220A21A24802F082FF06220B21A048F6
:104ED00002F07DFF06220C219D4802F078FF4FF47E
:104EE000D850009069469B4802F0E6FE0722082150
:104EF000984802F06CFF07220921964802F067FFEC
:104F000007220B21934802F062FF07220C219148EF
:104F100002F05DFF4FF40070009000208DF8040057
:104F20008DF8060003208DF8050002208DF807009B
:104F30006946844802F0C0FE4FF480700090012062
:104F40008DF8040000208DF8060002208DF8050081
:104F500000208DF8070069467A4802F0ADFE4FF454
:104F60004060009001208DF8040002208DF80500BB
:104F700001208DF8060000208DF807006946724870
:104F800002F09AFE4FF48040009001208DF804005A
:104F900002208DF8050000208DF8060001208DF814
:104FA00007006946684802F087FE4EF20120009033
:104FB00000208DF8040002208DF8050000208DF8F7
:104FC00006008DF807006946614802F075FE4FF44F
:104FD000C170009001208DF8040002208DF80500BA
:104FE00000208DF806008DF807006946584802F049
:104FF00063FE0120009000208DF8040002208DF84F
:10500000050000208DF8060001208DF80700694694
:10501000504802F051FE40F20E40009001208DF801
:10502000040002208DF8050000208DF806008DF8A0
:1050300007006946474802F03FFE40F2FF500090EB
:1050400001208DF8040002208DF8050000208DF865
:1050500006008DF8070069463C4802F02DFE20202E
:1050600000906946374802F027FE202000906946EC
:10507000354802F021FE1CBD7FB50021364A116083
:105080005160684603F06DFA4FF47A720198B0FBF4
:10509000F2F1B1F1807F00D31DE021F07F40401E8E
:1050A0004FF0E022506150170F22002807DA130753
:1050B0001D0E2A4B00F00F04241F1D5503E013079B
:1050C0001C0E274B1C5400BF00204FF0E0229061C3
:1050D0000720106100BF7FBD38B50022214B1B683F
:1050E000214C23601F4B1B1D1B6863601D4B083345
:1050F0001B68A360002022E01B4B13F820308DF8C2
:105100000030194B33F820301B0A8DF80130164B54
:1051100053F820301B0C8DF80230134B53F820301D
:105120001B0E8DF80330002106E01DF801501346D8
:10513000521C0E4CE554491C0429F6DB401C032884
:10514000DADB38BD000002400004024000100240DB
:1051500000080240000C0240A800002018ED00E00A
:1051600000E400E0107AFF1FF82800200429002046
:1051700010B50C2267496848FEF759FB10BD10B501
:1051800002F0FAFC01280CD002F008FB02F074FCDB
:10519000552002F0A2FC02F0D9FC02F07AFC02F0E9
:1051A0000AFB10BD10B502F0E7FC01280CD102F09B
:1051B000F5FA02F061FCAA2002F08FFC02F0C6FCB6
:1051C00002F067FC02F0F7FA10BDF8B50026FEF712
:1051D000E0FBFDF71DF800F03EFA00F0AEFF00F036
:1051E00084FAFFF758FA00F02DFC00F065FB00F0A0
:1051F000CDFB4FF4E130FDF78DF8002500E06D1C8C
:1052000046488542FBDB01F08FF8D8B900204449BD
:10521000097821F00101491C414A11700221414ADB
:10522000118000BF00E0401C3F498842FBDB0221A7
:105230003C4A921C1180002000E0401C3A49884200
:10524000FBDB00BF61B6FCF753F9FDF7E1FC4FF45F
:105250007A710420FEF77EFB3448007818BB0024E6
:10526000FFF7CFF80646012E02D1FBF7B5FF19E094
:105270002B48007820F00200801C29490870022089
:1052800028490880002400E0641C27488442FBDB96
:1052900002202449891C0880002400E0641C224864
:1052A0008442FBDB00BF22480079012802D0042899
:1052B0001ED111E000201F4908701F481F4B204AD3
:1052C000012100901F4804F0EDFDFFF733F9FFF7CF
:1052D00053F901F06AF80CE00120164908701A48E9
:1052E0001A4B1B4A012100901A4808F084FC00E088
:1052F00000BF00BFF8BD10B571B6FFF7C9FCFFF7DE
:1053000009FDFFF71EFDFFF7B7FEFFF75EFF002068
:1053100010BD0000042900200601002080F0FA02E0
:10532000F800002018080240809698000F01002025
:10533000D00400200E010020E001002060020020C7
:1053400094340020042A0020B80100200C0300201F
:105350007C010020D437002010B5FFF7CCFFFCF70C
:1053600020FA002010BD000070B5044600251AE0A8
:105370002020F849488304F0800018B12020F64925
:10538000088003E02020F449891C08800120FCF7F4
:1053900070FF2020EF4908830120FCF76AFF6006B8
:1053A000040E681CC5B2082DE2DB2020E949088301
:1053B00070BD2DE9F04107460C4615461E460020FB
:1053C000FFF7D2FF0020FFF7CFFF0020FFF7CCFF51
:1053D0000020FFF7C9FF06F01F0040F0E00840463C
:1053E000FFF7C2FF2846FFF7BFFF2046FFF7BCFFCD
:1053F0003846FFF7B9FFFF20FFF7B6FFFF20FFF7A2
:10540000B3FFFF20FFF7B0FFFF20FFF7ADFFBDE8C0
:10541000F08110B51F23002211466420FFF7C9FF59
:1054200010BD10B500221146CC4804F053F80021FD
:10543000CA4803F0E1FD10BD10B500220421C748A1
:1054400004F048F80021C54803F0D6FD10BD10B5A2
:105450002DED0E8B04469FEDC20BB0EE408AF0EEB0
:10546000608A7F2C00D97F2420460CF07FFF41EC1E
:105470001D0B9FEDBD0B53EC102B0CF0C7FF41EC47
:105480001C0B9FEDBB0B53EC102B0CF0A3FD41EC60
:105490001A0B20460CF06AFF41EC1E0B9FEDB61B69
:1054A000B0EE4E0AF0EE6E0A0BF062F9B0EE40DAA2
:1054B000F0EE60DA9FEDB20B53EC102B51EC1D0BAC
:1054C0000CF0A4FF41EC1C0B9FEDAF0B53EC102B29
:1054D0000CF080FD41EC1B0B53EC1A2B0CF0BEFCC6
:1054E00041EC190B9FEDAA0B53EC102B0DF09AF920
:1054F00041EC180B9FEDA80B53EC102B51EC180B43
:105500000CF084FF41EC1A0B9FEDA50B53EC102B14
:105510000CF0A4FC41EC190B0CF0B4FE044640F274
:105520007B20041B04B90124012200218B4803F0D5
:10553000D1FF00220421894803F0CCFF214687488F
:1055400003F0BFFE0121854803F056FDBDEC0E8B34
:1055500010BD10B52DED0E8B04469FED810BB0EE06
:10556000408AF0EE608A7F2C00D97F2420460CF020
:10557000FDFE41EC1D0B9FED8C0B53EC102B0CF042
:1055800045FF41EC1C0B9FED8A0B53EC102B0CF0EC
:1055900021FD41EC1A0B20460CF0E8FE41EC1E0BFD
:1055A0009FED751BB0EE4E0AF0EE6E0A0BF0E0F8C0
:1055B000B0EE40DAF0EE60DA9FED7F0B53EC102B8B
:1055C00051EC1D0B0CF022FF41EC1C0B9FED7C0BF2
:1055D00053EC102B0CF0FEFC41EC1B0B53EC1A2B84
:1055E0000CF03CFC41EC190B9FED770B53EC102BAE
:1055F0000CF034FC41EC180B9FED670B53EC102BB7
:1056000051EC180B0CF002FF41EC1A0B9FED640BF0
:1056100053EC102B0CF022FC41EC190B0CF032FE79
:10562000044640F27B20041B04B90124012204211A
:105630004A4803F04FFF00221146484803F04AFF52
:105640002146464803F03FFE0121444803F0D4FCC4
:10565000BDEC0E8B10BD10B588B05D4800684008E9
:1056600040004CF25031B0FBF1F0401E84B240F2E9
:105670007B200690ADF814400020ADF81C00ADF87A
:10568000160005A9354803F02EFC7020ADF8000087
:105690000120ADF8020002900020ADF80C00694630
:1056A0002E4803F0EEFC7020ADF800000220ADF8AB
:1056B0000C006946294803F0ABFC0821274803F099
:1056C00089FC0021254803F030FE0021234803F027
:1056D00035FE00221146214803F0FCFE0022042181
:1056E0001E4803F0F7FE08B010BD30B589B00024A5
:1056F0004FF48070374908838000488300BF3448E6
:10570000006846F2A811B0FBF1F50795ADF8184016
:105710000020ADF82000ADF81A0006A92E4803F0CD
:10572000E2FB6020ADF804000120ADF80600002087
:1057300003900220ADF8100001A9274803F068FC8F
:105740000021254803F0F1FD0121234803F054FC1A
:1057500009B030BD00000240180402400040014082
:1057600000000000000000001B0DE02D90A007408D
:105770000000000000002440000000000000004085
:105780003A234A7B836F14C0000000000088C340A6
:10579000787AA52C431C0140000000000000144052
:1057A000000000000000E03F55302AA913B021405E
:1057B000000000000000594068226C787AA5F13F93
:1057C0000000000000408F404C37894160A52F4009
:1057D00094000020001002400048014070B50446CB
:1057E0000D4625B14FF48060F849088303E04FF47B
:1057F0008060F649488300EE104AB8EE400AF4484B
:10580000D0ED000A20EE200ABCEEC00A10EE101AFD
:10581000F04803F056FD70BDEF48006800F001004D
:1058200008B1012070470020FCE70120EB49087017
:105830000620012181404209920002F1E022C2F8D3
:10584000001100BF7047062001218140E44A43094E
:1058500042F8231000BF0020E049087070470EB5E1
:105860000021022003F05AFA0120019000208DF857
:10587000080008208DF8090001208DF80A0001A811
:1058800001F0CEFE012001F02DFF06208DF8000072
:1058900002208DF801008DF8020000208DF8030031
:1058A000684602F002FD062001218140CD4A4309ED
:1058B00042F8231000BF0EBD30B589B000BF0024F0
:1058C000C948006849F27041B0FBF1F0451E0795E8
:1058D000ADF818400020ADF82000ADF81A0006A978
:1058E000C24803F000FB6020ADF804000120ADF8D1
:1058F0000600BD48006849F27041B0FBF1F000EBD2
:10590000800080006421B0FBF1F003900020ADF82E
:10591000100001A9B54803F07BFB0021B34803F058
:1059200004FD0021B14803F067FB09B030BD10B59C
:105930000121AE4803F060FB10BD10B50021AB485B
:1059400003F05AFB10BD0146C1EB01108200D017D5
:1059500002EB105000137047014608033C2290FBF5
:10596000F2F07047A248D0ED430A60EE800AFDEEE7
:10597000E00A10EE900A70479D49D1ED430A00EE0F
:10598000100AB8EEC01A81EE200A704700B58BB03D
:105990000021984801F055FC002001904FF48070E0
:1059A0000490002003904FF48030029001A801F091
:1059B00031FC002005908DF818008DF81900079033
:1059C000099001208DF8280005A98A4801F0F3FB11
:1059D000022301220821874801F073FC0121854838
:1059E00001F02FFC0BB000BD10B5022301220821ED
:1059F000804801F066FC7F4801F0BFFC00BF022137
:105A00007C4801F0DBFD0028F9D07A48C06C84B2F4
:105A10002411E0B210BD10B50223012209217548FE
:105A200001F04FFC734801F0A8FC00BF022171484F
:105A300001F0C4FD0028F9D06E48C06C84B2241176
:105A4000E0B210BD00B585B004206B49088002208B
:105A5000891E08800020ADF800004FF48270ADF878
:105A600002000020ADF80400ADF80600ADF8080013
:105A70004815ADF80A001020ADF80C000020ADF874
:105A80000E000720ADF8100069465C4802F062FF86
:105A900001215A4803F041F805B000BD10B5044695
:105AA00000BF0221554803F0F0F80028F9D0214644
:105AB000524803F0B3F800BF0121504803F0E5F865
:105AC0000028F9D04D4803F0A6F8C0B210BD2DE96A
:105AD000F04104460E461746002571B680203E4927
